:020000040800F2
:1000000000280020390C0008DD0B0008E30B000875
:10001000E90B0008EF0B0008F50B000800000000DA
:10002000000000000000000000000000FB0B0008C2
:10003000070C000800000000130C00081F0C00084B
:10004000810C0008810C0008810C0008810C00085C
:10005000810C0008810C0008810C0008810C00084C
:10006000810C0008810C0008810C0008810C00083C
:10007000810C0008810C0008810C0008810C00082C
:10008000810C0008810C0008810C0008810C00081C
:10009000810C0008810C0008810C0008810C00080C
:1000A000810C0008810C0008810C0008810C0008FC
:1000B000810C0008810C000800000000810C000881
:1000C000810C00080000000000000000810C000806
:1000D00000000000810C0008810C000800000000F6
:1000E000810C0008810C0008810C00080000000051
:1000F0000000000000000000000000000000000000
:0C01000000000000000000005FF808F1A3
:10010C0010B5054C237833B9044B13B10448AFF345
:10011C0000800123237010BD1C0000200000000093
:10012C00A41A000808B5034B1BB103490348AFF3ED
:10013C00008008BD0000000020000020A41A000868
:10014C0080B582B000AF78607B68002B22D1002292
:10015C000121BD4801F074F800220221BA4801F0D7
:10016C006FF800220421B84801F06AF80022082137
:10017C00B54801F065F800221021B34801F060F891
:10018C0000222021B04801F05BF801224021AE484A
:10019C0001F056F87B68012B22D101220121AA48DB
:1001AC0001F04EF800220221A74801F049F8002284
:1001BC000421A54801F044F801220821A24801F0CD
:1001CC003FF801221021A04801F03AF80122202129
:1001DC009D4801F035F8012240219B4801F030F890
:1001EC007B68022B22D100220121974801F028F8CC
:1001FC0000220221944801F023F8012204219248A4
:10020C0001F01EF8002208218F4801F019F8002295
:10021C0010218D4801F014F8012220218A4801F0A8
:10022C000FF800224021884801F00AF87B68032B64
:10023C0022D100220121844801F002F8002202217F
:10024C00814800F0FDFF002204217F4800F0F8FFF8
:10025C00002208217C4800F0F3FF012210217A488B
:10026C0000F0EEFF01222021774800F0E9FF002288
:10027C004021754800F0E4FF7B68042B22D1012259
:10028C000121714800F0DCFF002202216E4800F0D1
:10029C00D7FF002204216C4800F0D2FF0122082174
:1002AC00694800F0CDFF01221021674800F0C8FF1B
:1002BC0000222021644800F0C3FF00224021624844
:1002CC0000F0BEFF7B68052B22D1002201215E4885
:1002DC0000F0B6FF012202215B4800F0B1FF0022C2
:1002EC000421594800F0ACFF00220821564800F0C8
:1002FC00A7FF01221021544800F0A2FF0022202168
:10030C00514800F09DFF002240214F4800F098FF1B
:10031C007B68062B22D1002201214B4800F090FF74
:10032C0001220221484800F08BFF0022042146489C
:10033C0000F086FF00220821434800F081FF0022D4
:10034C001021414800F07CFF002220213E4800F0A3
:10035C0077FF002240213C4800F072FF7B68072B9E
:10036C0022D100220121384800F06AFF002202212C
:10037C00354800F065FF00220421334800F060FF8F
:10038C0001220821304800F05BFF012210212E4889
:10039C0000F056FF012220212B4800F051FF0122D2
:1003AC004021294800F04CFF7B68082B22D1002209
:1003BC000121254800F044FF00220221224800F0D0
:1003CC003FFF00220421204800F03AFF00220821C0
:1003DC001D4800F035FF002210211B4800F030FFB3
:1003EC0000222021184800F02BFF00224021164843
:1003FC0000F026FF7B68092B22D100220121124834
:10040C0000F01EFF002202210F4800F019FF00220D
:10041C0004210D4800F014FF002208210A4800F0C6
:10042C000FFF01221021084800F00AFF00222021B2
:10043C00054800F005FF00224021034800F000FFB2
:10044C0000BF0837BD4680BD000C014080B582B0AE
:10045C0000AF78607B68002B28D100228021D24825
:10046C0000F0EEFE00224FF48071CF4800F0E8FE61
:10047C0000224FF40071CC4800F0E2FE00224FF451
:10048C008061C94800F0DCFE00224FF40061C648D0
:10049C0000F0D6FE00224FF48051C34800F0D0FE8D
:1004AC0001224FF40051C04800F0CAFE7B68012BBA
:1004BC0028D101228021BC4800F0C2FE00224FF45A
:1004CC008071B94800F0BCFE00224FF40071B648B0
:1004DC0000F0B6FE01224FF48061B34800F0B0FE8C
:1004EC0001224FF40061B04800F0AAFE01224FF443
:1004FC008051AD4800F0A4FE01224FF40051AA48EF
:10050C0000F09EFE7B68022B28D100228021A64899
:10051C0000F096FE00224FF48071A34800F090FE8C
:10052C0001224FF40071A04800F08AFE00224FF423
:10053C0080619D4800F084FE00224FF400619A48CF
:10054C0000F07EFE01224FF48051974800F078FEB7
:10055C0000224FF40051944800F072FE7B68032B8C
:10056C0028D100228021904800F06AFE00224FF42E
:10057C0080718D4800F064FE00224FF400718A48AF
:10058C0000F05EFE00224FF48061874800F058FEB8
:10059C0001224FF40061844800F052FE01224FF416
:1005AC008051814800F04CFE00224FF400517E48EF
:1005BC0000F046FE7B68042B28D1012280217A486A
:1005CC0000F03EFE00224FF48071774800F038FEB8
:1005DC0000224FF40071744800F032FE01224FF4F7
:1005EC008061714800F02CFE01224FF400616E48CE
:1005FC0000F026FE00224FF480516B4800F020FEE4
:10060C0000224FF40051684800F01AFE7B68052B5D
:10061C0028D100228021644800F012FE01224FF400
:10062C008071614800F00CFE00224FF400715E48AE
:10063C0000F006FE00224FF480615B4800F000FEE3
:10064C0001224FF40061584800F0FAFD00224FF4EB
:10065C008051554800F0F4FD00224FF400515248EF
:10066C0000F0EEFD7B68062B28D1002280214E483D
:10067C0000F0E6FD01224FF480714B4800F0E0FDE4
:10068C0000224FF40071484800F0DAFD00224FF4CC
:10069C008061454800F0D4FD00224FF400614248CF
:1006AC0000F0CEFD00224FF480513F4800F0C8FD11
:1006BC0000224FF400513C4800F0C2FD7B68072B30
:1006CC0028D100228021384800F0BAFD00224FF4D6
:1006DC008071354800F0B4FD00224FF400713248AF
:1006EC0000F0AEFD01224FF480612F4800F0A8FD10
:1006FC0001224FF400612C4800F0A2FD01224FF4BE
:10070C008051294800F09CFD01224FF400512648ED
:10071C0000F096FD7B68082B28D10022802122480E
:10072C0000F08EFD00224FF480711F4800F088FD10
:10073C0000224FF400711C4800F082FD00224FF49F
:10074C008061194800F07CFD00224FF400611648CE
:10075C0000F076FD00224FF48051134800F070FD3C
:10076C0000224FF40051104800F06AFD7B68092B01
:10077C002BD1002280210C4800F062FD00224FF4A6
:10078C008071094800F05CFD00224FF400710648AE
:10079C0000F056FD00224FF48061034800F050FD3C
:1007AC0001224FF4006101E0000C0140094800F007
:1007BC0047FD00224FF48051064800F041FD002215
:1007CC004FF40051034800F03BFD00BF0837BD4615
:1007DC0080BD00BF000C014080B500AF00F04CFAAA
:1007EC0000F02CF900F066F98F4B1B68012B40F0E0
:1007FC008C808E4B1B68002B6DDD8C4B1B68184658
:10080C00FFF79EFC894B1B68022B2BDD01224FF45A
:10081C008061874800F014FD00224FF40071844879
:10082C0000F00EFD00224FF40061814800F008FD3D
:10083C0001224FF480717E4800F002FD00228021DD
:10084C007B4800F0FDFC00224021794800F0F8FCC8
:10085C00784B1B681846FFF7F9FD764B1B68013B7C
:10086C00744A1360714B1B68022B2FDC6F4B1B6897
:10087C00002B2BDD01224FF480616D4800F0E0FC71
:10088C0000224FF400716A4800F0DAFC00224FF4A9
:10089C000061674800F0D4FC01224021644800F05C
:1008AC00CFFC00228021624800F0CAFC00224FF4E9
:1008BC0080715F4800F0C4FC5F4B1B681846FFF763
:1008CC00C5FD5D4B1B68013B5B4A1360574B1B68B6
:1008DC00013B564A1360584B1B68002B02DC564BED
:1008EC0002221A60534B1B68002B02DC514B032273
:1008FC001A604E4B1B68002B00F391804B4B05226A
:10090C001A60494B02221A6089E0484B1B68002B85
:10091C006DDD464B1B681846FFF798FD434B1B6873
:10092C00022B2BDD01228021414800F089FC0022A2
:10093C0040213F4800F084FC00224FF480713C4879
:10094C0000F07EFC01224FF40061394800F078FC85
:10095C0000224FF40071364800F072FC00224FF474
:10096C008061334800F06CFC324B1B681846FFF773
:10097C00E7FB304B1B68013B2E4A13602B4B1B686B
:10098C00022B2FDC294B1B68002B2BDD0122802135
:10099C00274800F055FC00224021254800F050FC6F
:1009AC0000224FF48071224800F04AFC01224FF4DF
:1009BC0000711F4800F044FC00224FF480611C4879
:1009CC0000F03EFC00224FF40061194800F038FCA6
:1009DC00194B1B681846FFF7B3FB174B1B68013B01
:1009EC00154A1360114B1B68013B104A1360124BE4
:1009FC001B68002B02DC104B02221A600D4B1B688B
:100A0C00002B02DC0B4B03221A60084B1B68002BDB
:100A1C0005DC064B05221A60034B01221A604FF4C9
:100A2C007A7000F08BF9DFE60C000020000000204B
:100A3C0000080140080000200400002080B590B0A0
:100A4C0000AF07F1180328220021184601F01CF80A
:100A5C003B1D00221A605A609A60DA601A61022308
:100A6C00BB610123BB621023FB6200237B6307F194
:100A7C001803184600F0FCFB0346002B01D000F0D5
:100A8C006FF80F237B600023BB600023FB60002307
:100A9C003B6100237B613B1D0021184600F068FE82
:100AAC000346002B01D000F05BF800BF4037BD4679
:100ABC0080BD000080B586B000AF07F108030022AE
:100ACC001A605A609A60DA60224B9B69214A43F0A3
:100ADC00040393611F4B9B6903F004037B607B68E9
:100AEC001C4B9B691B4A43F008039361194B9B6990
:100AFC0003F008033B603B6800224FF47C6116480E
:100B0C0000F09EFB002243F6FF71144800F098FBA6
:100B1C004FF47C63BB600123FB6000233B61022329
:100B2C007B6107F1080319460B4800F00FFA43F6F6
:100B3C00FF73BB600123FB6000233B6102237B61DD
:100B4C0007F108031946054800F000FA00BF1837F2
:100B5C00BD4680BD0010024000080140000C014061
:100B6C0080B400AF72B600BFFEE7000080B485B061
:100B7C0000AF154B9B69144A43F001039361124B70
:100B8C009B6903F00103BB60BB680F4BDB690E4A2A
:100B9C0043F08053D3610C4BDB6903F080537B60D3
:100BAC007B680A4B5B68FB60FB6823F0E063FB60CF
:100BBC00FB6843F08063FB60044AFB68536000BF32
:100BCC001437BD4680BC7047001002400000014045
:100BDC0080B400AFFEE780B400AFFEE780B400AF96
:100BEC00FEE780B400AFFEE780B400AFFEE780B450
:100BFC0000AF00BFBD4680BC704780B400AF00BFE3
:100C0C00BD4680BC704780B400AF00BFBD4680BC01
:100C1C00704780B500AF00F075F800BF80BD80B4A0
:100C2C0000AF00BFBD4680BC704700000C480D49AA
:100C3C000D4A002302E0D458C4500433C4188C422B
:100C4C00F9D30A4A0A4C002301E013600432A24291
:100C5C00FBD3FFF7E4FF00F0F3FEFFF7BDFD704799
:100C6C00000000201C000020E41A00081C000020DA
:100C7C003C000020FEE7000080B500AF084B1B686D
:100C8C00074A43F010031360032000F02BF90F20E8
:100C9C0000F008F8FFF76AFF0023184680BD00BF7C
:100CAC000020024080B582B000AF7860124B1A6809
:100CBC00124B1B7819464FF47A73B3FBF1F3B2FB6A
:100CCC00F3F3184600F035F90346002B01D001234D
:100CDC000EE07B680F2B0AD8002279684FF0FF30AA
:100CEC0000F00BF9064A7B681360002300E0012337
:100CFC0018460837BD4680BD1000002018000020A3
:100D0C001400002080B400AF054B1B781A46054B2D
:100D1C001B681344034A136000BFBD4680BC704778
:100D2C00180000203800002080B400AF024B1B6874
:100D3C001846BD4680BC70473800002080B584B092
:100D4C0000AF7860FFF7F0FFB8607B68FB60FB6872
:100D5C00B3F1FF3F05D00A4B1B781A46FB681344CE
:100D6C00FB6000BFFFF7E0FF0246BB68D31AFA68CE
:100D7C009A42F7D800BF00BF1037BD4680BD00BFF8
:100D8C001800002080B485B000AF78607B6803F059
:100D9C000703FB600C4BDB68BB60BA684FF6FF03C4
:100DAC001340BB60FB681A02BB68134343F0BF637C
:100DBC0043F40033BB60044ABB68D36000BF1437F4
:100DCC00BD4680BC704700BF00ED00E080B400AFB2
:100DDC00044BDB681B0A03F007031846BD4680BCB6
:100DEC00704700BF00ED00E080B483B000AF034655
:100DFC003960FB7197F90730002B0ADB3B68DAB2DC
:100E0C000C4997F907301201D2B20B4483F8002336
:100E1C000AE03B68DAB20849FB7903F00F03043BA4
:100E2C001201D2B20B441A7600BF0C37BD4680BCFF
:100E3C00704700BF00E100E000ED00E080B489B035
:100E4C0000AFF860B9607A60FB6803F00703FB61E0
:100E5C00FB69C3F10703042B28BF0423BB61FB69A7
:100E6C000433062B02D9FB69033B00E000237B61B2
:100E7C004FF0FF32BB6902FA03F3DA43BB681A4046
:100E8C007B699A404FF0FF317B6901FA03F3D94338
:100E9C007B680B40134318462437BD4680BC704713
:100EAC0080B582B000AF78607B68013BB3F1807F86
:100EBC0001D301230FE00A4A7B68013B53600F21E9
:100ECC004FF0FF30FFF790FF054B00229A60044B68
:100EDC0007221A60002318460837BD4680BD00BFA4
:100EEC0010E000E080B582B000AF78607868FFF762
:100EFC0049FF00BF0837BD4680BD80B586B000AF46
:100F0C000346B9607A60FB7300237B61FFF75EFFD9
:100F1C0078617A68B9687869FFF790FF024697F9AB
:100F2C000F3011461846FFF75FFF00BF1837BD465C
:100F3C0080BD80B582B000AF78607868FFF7B0FFF5
:100F4C00034618460837BD4680BD000080B48BB000
:100F5C0000AF7860396000237B6200233B6248E17C
:100F6C0001227B6A02FA03F3FB613B681B68FA6996
:100F7C001340BB61BA69FB699A4240F037813B6808
:100F8C005B68A34A93425ED0A14A934275D8A14AAA
:100F9C00934258D09F4A93426FD89F4A934252D063
:100FAC009D4A934269D89D4A93424CD09B4A9342A6
:100FBC0063D89B4A934246D0994A93425DD8122BF0
:100FCC002AD8122B59D801A252F823F0531000083A
:100FDC002D1000083F100008811000088710000831
:100FEC008710000887100008871000088710000879
:100FFC008710000887100008871000088710000869
:10100C008710000887100008871000088710000858
:10101C003510000849100008824A934213D02CE086
:10102C003B68DB683B6229E03B68DB6804333B626E
:10103C0024E03B68DB6808333B621FE03B68DB68FD
:10104C000C333B621AE03B689B68002B02D10423F3
:10105C003B6213E03B689B68012B05D108233B6284
:10106C007B68FA691A6109E008233B627B68FA69BC
:10107C005A6103E000233B6200E000BFBB69FF2B19
:10108C0001D87B6801E07B6804337B61BB69FF2B73
:10109C0002D87B6A9B0002E07B6A083B9B003B61A9
:1010AC007B691A680F213B6901FA03F3DB431A4091
:1010BC00396A3B6901FA03F31A437B691A603B688E
:1010CC005B6803F08053002B00F09080564B9B69BB
:1010DC00554A43F001039361534B9B6903F00103A1
:1010EC00BB60BB68514A7B6A9B08023352F82330C1
:1010FC00FB607B6A03F003039B000F2202FA03F3ED
:10110C00DB43FA681340FB607B68494A93420DD07D
:10111C007B68484A934207D07B68474A934201D187
:10112C00022304E0032302E0012300E000237A6A97
:10113C0002F0030292009340FA681343FB603B49B0
:10114C007B6A9B080233FA6841F823203B685B6892
:10115C0003F48033002B06D0384B1A683749BB692F
:10116C0013430B6006E0354B1A68BB69DB4333490C
:10117C0013400B603B685B6803F40033002B06D014
:10118C002E4B5A682D49BB6913434B6006E02B4B21
:10119C005A68BB69DB43294913404B603B685B6869
:1011AC0003F48013002B06D0244B9A682349BB69A7
:1011BC0013438B6006E0214B9A68BB69DB431F49E4
:1011CC0013408B603B685B6803F40013002B06D064
:1011DC001A4BDA681949BB691343CB6006E0174B0D
:1011EC00DA68BB69DB4315491340CB607B6A01337A
:1011FC007B623B681A687B6A22FA03F3002B7FF44C
:10120C00AFAE00BF00BF2C37BD4680BC704700BFDF
:10121C0000003210000031100000221000002110DC
:10122C0000001210000011100010024000000140DC
:10123C0000080140000C0140001001400004014076
:10124C0080B483B000AF78600B467B8013467B7014
:10125C007B78002B03D07A887B681A6103E07B884B
:10126C001A047B681A6100BF0C37BD4680BC7047FE
:10127C0080B586B000AF78607B68002B01D101236C
:10128C006CE27B681B6803F00103002B00F0878085
:10129C00924B5B6803F00C03042B0CD08F4B5B68F8
:1012AC0003F00C03082B12D18C4B5B6803F48033D6
:1012BC00B3F5803F0BD1894B1B6803F40033002B33
:1012CC006CD07B685B68002B68D1012346E27B689D
:1012DC005B68B3F5803F06D1804B1B687F4A43F4B3
:1012EC00803313602EE07B685B68002B0CD17B4B4A
:1012FC001B687A4A23F480331360784B1B68774A57
:10130C0023F4802313601DE07B685B68B3F5A02F8A
:10131C000CD1724B1B68714A43F4802313606F4BE2
:10132C001B686E4A43F4803313600BE06B4B1B68F5
:10133C006A4A23F480331360684B1B68674A23F4B2
:10134C00802313607B685B68002B13D0FFF7ECFCE9
:10135C00386108E0FFF7E8FC02463B69D31A642BBE
:10136C0001D90323FAE15D4B1B6803F40033002B16
:10137C00F0D014E0FFF7D8FC386108E0FFF7D4FC9C
:10138C0002463B69D31A642B01D90323E6E1534B84
:10139C001B6803F40033002BF0D100E000BF7B6826
:1013AC001B6803F00203002B63D04C4B5B6803F00B
:1013BC000C03002B0BD0494B5B6803F00C03082B80
:1013CC001CD1464B5B6803F48033002B16D1434B86
:1013DC001B6803F00203002B05D07B681B69012BF3
:1013EC0001D00123BAE13D4B1B6823F0F8027B6866
:1013FC005B69DB00394913430B603AE07B681B697E
:10140C00002B20D0364B01221A60FFF78DFC38617F
:10141C0008E0FFF789FC02463B69D31A022B01D97D
:10142C0003239BE12D4B1B6803F00203002BF0D030
:10143C002A4B1B6823F0F8027B685B69DB002749A9
:10144C0013430B6015E0264B00221A60FFF76CFC6F
:10145C00386108E0FFF768FC02463B69D31A022B9F
:10146C0001D903237AE11D4B1B6803F00203002B07
:10147C00F0D17B681B6803F00803002B3AD07B6823
:10148C009B69002B19D0174B01221A60FFF74CFCFB
:10149C00386108E0FFF748FC02463B69D31A022B7F
:1014AC0001D903235AE10D4B5B6A03F00203002BB5
:1014BC00F0D0012000F0A6FA1CE00A4B00221A60C2
:1014CC00FFF732FC38610FE0FFF72EFC02463B6958
:1014DC00D31A022B08D9032340E100BF00100240AD
:1014EC0000004242800442429E4B5B6A03F00203BE
:1014FC00002BE9D17B681B6803F00403002B00F080
:10150C00A6800023FB75974BDB6903F08053002BFF
:10151C000DD1944BDB69934A43F08053D361914BCB
:10152C00DB6903F08053BB60BB680123FB758E4BFA
:10153C001B6803F48073002B18D18B4B1B688A4AF1
:10154C0043F480731360FFF7EFFB386108E0FFF79B
:10155C00EBFB02463B69D31A642B01D90323FDE054
:10156C00814B1B6803F48073002BF0D07B68DB6825
:10157C00012B06D17B4B1B6A7A4A43F001031362A1
:10158C002DE07B68DB68002B0CD1764B1B6A754A0F
:10159C0023F001031362734B1B6A724A23F004039A
:1015AC0013621CE07B68DB68052B0CD16D4B1B6A4E
:1015BC006C4A43F0040313626A4B1B6A694A43F09A
:1015CC00010313620BE0674B1B6A664A23F00103AD
:1015DC001362644B1B6A634A23F0040313627B6837
:1015EC00DB68002B15D0FFF79FFB38610AE0FFF793
:1015FC009BFB02463B69D31A41F28832934201D9D4
:10160C000323ABE0574B1B6A03F00203002BEED015
:10161C0014E0FFF789FB38610AE0FFF785FB02460F
:10162C003B69D31A41F28832934201D9032395E0E6
:10163C004C4B1B6A03F00203002BEED1FB7D012BFC
:10164C0005D1484BDB69474A23F08053D3617B6853
:10165C00DB69002B00F08180424B5B6803F00C03CC
:10166C00082B61D07B68DB69022B46D13F4B0022F3
:10167C001A60FFF759FB386108E0FFF755FB02468B
:10168C003B69D31A022B01D9032367E0354B1B6846
:10169C0003F00073002BF0D17B681B6AB3F5803F1D
:1016AC0008D1304B5B6823F400327B689B682D4972
:1016BC0013434B602B4B5B6823F474127B68196AE1
:1016CC007B685B6A0B43274913434B60274B012212
:1016DC001A60FFF729FB386108E0FFF725FB02468B
:1016EC003B69D31A022B01D9032337E01D4B1B682E
:1016FC0003F00073002BF0D02FE01C4B00221A607B
:10170C00FFF712FB386108E0FFF70EFB02463B695E
:10171C00D31A022B01D9032320E0124B1B6803F0D0
:10172C000073002BF0D118E07B68DB69012B01D131
:10173C00012313E00B4B5B68FB60FB6803F4803206
:10174C007B681B6A9A4206D1FB6803F470127B68B3
:10175C005B6A9A4201D0012300E000231846183737
:10176C00BD4680BD00100240007000406000424247
:10177C0080B584B000AF786039607B68002B01D1F4
:10178C000123D0E06A4B1B6803F007033A689A42C6
:10179C0010D9674B1B6823F0070265493B6813435C
:1017AC000B60634B1B6803F007033A689A4201D045
:1017BC000123B8E07B681B6803F00203002B20D0E8
:1017CC007B681B6803F00403002B05D0594B5B6846
:1017DC00584A43F4E06353607B681B6803F00803CA
:1017EC00002B05D0534B5B68524A43F46053536053
:1017FC00504B5B6823F0F0027B689B684D491343A8
:10180C004B607B681B6803F00103002B40D07B68A6
:10181C005B68012B07D1474B1B6803F40033002B8B
:10182C0015D101237FE07B685B68022B07D1414B0C
:10183C001B6803F00073002B09D1012373E03D4BAF
:10184C001B6803F00203002B01D101236BE0394B21
:10185C005B6823F003027B685B68364913434B607B
:10186C00FFF762FAF8600AE0FFF75EFA0246FB68DF
:10187C00D31A41F28832934201D9032353E02D4B02
:10188C005B6803F00C027B685B689B009A42EBD1AF
:10189C00274B1B6803F007033A689A4210D2244B7B
:1018AC001B6823F0070222493B6813430B60204B53
:1018BC001B6803F007033A689A4201D0012332E017
:1018CC007B681B6803F00403002B08D0194B5B6882
:1018DC0023F4E0627B68DB68164913434B607B683A
:1018EC001B6803F00803002B09D0124B5B6823F430
:1018FC0060527B681B69DB000E4913434B6000F0A0
:10190C0021F802460B4B5B681B0903F00F030A49D5
:10191C00CB5C22FA03F3094A1360094B1B68184687
:10192C00FFF7C0F9002318461037BD4680BD00BF35
:10193C000020024000100240CC1A000810000020C9
:10194C001400002090B48AB000AF2A4B3C1D0FCB82
:10195C0084E80F0040F201233B800023FB6100234D
:10196C00BB6100237B6200237B6100233B62224B23
:10197C005B68FB61FB6903F00C03042B02D0082BA2
:10198C0003D02DE01D4B3B622DE0FB699B0C03F05B
:10199C000F0307F12802134413F8243C7B61FB6905
:1019AC0003F48033002B13D0134B5B685B0C03F0F8
:1019BC00010307F12802134413F8283CBB617B692F
:1019CC000E4A02FB03F2BB69B2FBF3F37B6204E049
:1019DC007B690B4A02FB03F37B627B6A3B6202E08E
:1019EC00064B3B6200BF3B6A18462837BD4690BC8D
:1019FC00704700BFBC1A00080010024000127A00A9
:101A0C0000093D0080B485B000AF78600A4B1B68BC
:101A1C000A4AA2FB03235B0A7A6802FB03F3FB600E
:101A2C0000BFFB685A1EFA60002BF9D100BF00BF43
:101A3C001437BD4680BC704710000020D34D621097
:101A4C0070B500260C4D0D4C641BA410A64209D198
:101A5C0000F022F800260A4D0A4C641BA410A64282
:101A6C0005D170BD55F8043B98470136EEE755F8A3
:101A7C00043B98470136F2E7DC1A0008DC1A000830
:101A8C00DC1A0008E01A000803460244934200D115
:101A9C00704703F8011BF9E7F8B500BFF8BC08BCA8
:101AAC009E467047F8B500BFF8BC08BC9E46704710
:101ABC0002030405060708090A0B0C0D0E0F101083
:101ACC0000000000000000000102030406070809E2
:041ADC0031010008CC
:041AE0000D010008EC
:101AE40005000000020000000300000001000000E7
:0C1AF4000024F4001000000001000000BD
:0400000508000C39AA
:00000001FF
